:020000000C945E
:1000020044000C9400000C9400000C9400000C942A
:1000120000000C9400000C9400000C9400000C945E
:1000220071000C9400000C9400000C9400000C94DD
:1000320000000C9400000C9400000C9400000C943E
:1000420000000C9400000C9400000C9400000C942E
:100052000000000000003F0006005B004F00660049
:100062006D007D0007007F006F00010002000400A8
:100072000800040004005400130060015800070047
:1000820074016C000000F894EE27ECBBF1E0FBBFBA
:10009200EBBFE5BF8DE0A2E0BB27ED938A95E9F7C0
:1000A20080E094E0A0E6ED930197E9F7E4E7F0E061
:1000B20085919591009761F0A591B5910590159064
:1000C200BF01F00105900D920197E1F7FB01F0CF1E
:1000D200EFE5EDBFE4E0EEBFC0E6D1E00C94BC007A
:1000E2000A921A929A93AA93BA93EA93FA93EFB75F
:1000F200EA93F301A4E7B1E06AD0E5BB062C072836
:1001020019F4D2016AD0E2BBE1E0F0E0E615F705AE
:1001120029F4D201EAE0F0E067D0E2BBE2E0F0E0ED
:10012200E615F70529F4D201E4E6F0E05DD0E2BB82
:10013200E3E0F0E0E615F70539F4D201E8EEF3E08A
:1001420053D0E2BB66247724F20131962F01F301EA
:1001520031963F01EFE0F7E2E415F50511F444248E
:100162005524E991EFBFF991E991B991A99199913A
:10017200199009901895E0E0EABBEBBBE7BBE8BB3E
:10018200E4BBE5BBE1BBE2BBE3BFE2BFECBFEFBD5B
:10019200E1E0EEBDE0E0EDBDECBDE7BDE6BDEBBDEF
:1001A200EABDE9BDE8BDE2BDE5BDE4BDE3BDE4E015
:1001B200E9BFE0E0E5BFE4BFEAB9E0E8E8B9E0E0C2
:1001C200E0BFE6B9EDB9E6BF7894FFCFFFCFEE0FFF
:1001D200FF1FAE0FBF1FEC910895EAE0F0E00E940E
:1001E2001501A0E6B1E0F3CF0E941001DF01F5CFC7
:1001F200F195E195F04008950024112490E1AA0FB1
:10020200BB1F001C111C0E1A1F0A18F40E0E1F1E13
:1002120001C0A1609A9599F7FD01D001089512D00D
:10022200EBDF0EF4E5DF0895E894B7FF04C0A09574
:10023200B09511966894F7FDDBDFDEDFFD010EF469
:10024200D7DF0895E894F7FF02C0D2DF6894B7FFC2
:1002520006C0A095B095119600F8039400FA08958F
:00000001FF
